{
  "contractName": "Resume",
  "abi": [
    {
      "anonymous": false,
      "inputs": [
        {
          "indexed": false,
          "name": "resumeID",
          "type": "uint128"
        },
        {
          "indexed": false,
          "name": "score",
          "type": "uint128"
        },
        {
          "indexed": false,
          "name": "timestamp",
          "type": "uint128"
        }
      ],
      "name": "resumesProcessed",
      "type": "event"
    },
    {
      "constant": false,
      "inputs": [
        {
          "name": "resumeID",
          "type": "uint128"
        },
        {
          "name": "score",
          "type": "uint128"
        },
        {
          "name": "timestamp",
          "type": "uint128"
        }
      ],
      "name": "processResumes",
      "outputs": [],
      "payable": false,
      "stateMutability": "nonpayable",
      "type": "function"
    }
  ],
  "bytecode": "0x608060405234801561001057600080fd5b506101a1806100206000396000f300608060405260043610610041576000357c0100000000000000000000000000000000000000000000000000000000900463ffffffff16806369de7aba14610046575b600080fd5b34801561005257600080fd5b506100bb60048036038101908080356fffffffffffffffffffffffffffffffff16906020019092919080356fffffffffffffffffffffffffffffffff16906020019092919080356fffffffffffffffffffffffffffffffff1690602001909291905050506100bd565b005b7fb8fde36dd63c8ce1eb6a7f899235c019f07c79ff24c2397a7d5f2321870dceeb83838360405180846fffffffffffffffffffffffffffffffff166fffffffffffffffffffffffffffffffff168152602001836fffffffffffffffffffffffffffffffff166fffffffffffffffffffffffffffffffff168152602001826fffffffffffffffffffffffffffffffff166fffffffffffffffffffffffffffffffff168152602001935050505060405180910390a15050505600a165627a7a723058201ef393e2826481c1e45d22d359af277937704e0742a6103f963c1cce04c672c10029",
  "source": "pragma solidity ^0.4.23;\n\ncontract Resume {\n  event resumesProcessed(uint128 resumeID, uint128 score, uint128 timestamp); \n\n  function processResumes(uint128 resumeID, uint128 score, uint128 timestamp) public  {\n    emit resumesProcessed(resumeID, score, timestamp);\n  }\n}\n",
  "sourcePath": "/Users/jeremyrosenfeld/tronDapppCompetition/contracts/Resume.sol",
  "compiler": {
    "name": "solc",
    "version": "0.4.24-develop.2018.8.28+commit.3ba0cdec.mod.Emscripten.clang"
  },
  "schemaVersion": "2.0.1",
  "updatedAt": "2018-12-19T00:27:04.519Z"
}